:020000040800F2
:100000006807002029020008ED1900086917000898
:10001000E919000821040008451C00080000000040
:10002000000000000000000000000000F5190008BA
:100030002504000800000000F1190008F919000863
:10004000430200084302000843020008430200087C
:10005000430200084302000843020008430200086C
:10006000430200084302000843020008430200085C
:10007000430200084302000843020008430200084C
:10008000430200084302000843020008430200083C
:10009000430200084302000843020008430200082C
:1000A00043020008BD1A000843020008430200088A
:1000B000CD1A00084302000843020008430200086A
:1000C00043020008430200084302000843020008FC
:1000D00043020008430200084302000843020008EC
:1000E00029040008430200084302000843020008F4
:1000F00043020008430200084302000843020008CC
:1001000043020008430200084302000843020008BB
:1001100043020008430200084302000843020008AB
:10012000430200084302000843020008430200089B
:100130004302000800000000000000004302000825
:10014000430200084302000843020008430200087B
:10015000430200084302000843020008430200086B
:10016000430200084302000843020008430200085B
:1001700043020008430200080000000000000000E5
:10018000430200084302000800F002F800F03CF8C7
:100190000AA090E8000C82448344AAF10107DA45E2
:1001A00001D100F031F8AFF2090EBAE80F0013F0F8
:1001B000010F18BFFB1A43F001031847B01C0000E1
:1001C000D01C0000103A24BF78C878C1FAD8520772
:1001D00024BF30C830C144BF04680C6070470000C1
:1001E0000023002400250026103A28BF78C1FBD840
:1001F000520728BF30C148BF0B6070471FB501F0E0
:1002000013FE1FBD10B510BD00F0D0F81146FFF76A
:10021000F5FF01F04BFD00F0EEF803B4FFF7F2FF3D
:1002200003BC00F0F5F80000094880470948004782
:10023000FEE7FEE7FEE7FEE7FEE7FEE7FEE7FEE796
:10024000FEE7FEE704480549054A064B70470000F3
:10025000A91A000889010008680100206807002029
:10026000680300206803002053EA020C00F0698054
:100270002DE9F04B4FF00006002B1FBFB3FA83F5BA
:1002800003FA05F424FA05F65E4012BF1643B2FAEB
:1002900082F502FA05F4C5F120051EBF22FA05FC1D
:1002A00044EA0C04203556EA044C4FEA144418BFC3
:1002B000641C4FF000084FF00009904271EB030CF2
:1002C00039D3002919BFB1FA81F701FA07F6B0FA5C
:1002D00080F700FA07F6C7F120071EBF20FA07FCD7
:1002E00046EA0C062037B6FBF4FCA7EB0507103FE7
:1002F00007F01F0BCBF120062CFA06F60CFA0BFBCD
:1003000044BFB3460026202FA4BF5E464FF0000B2B
:100310005BEA060C08BF4FF0010B19EB0B0948EB29
:100320000608ABFB027C06FB02CC0BFB03CCC01B1C
:1003300071EB0C01C1E70B46024641464846BDE859
:10034000F08B13B5084318BF4FF0FF300146AFF3F1
:100350000080BDE81C4070474FF0000200B5134616
:1003600094469646203922BFA0E80C50A0E80C50D5
:10037000B1F12001BFF4F7AF090728BFA0E80C5086
:1003800048BF0CC05DF804EB890028BF40F8042B7F
:1003900008BF704748BF20F8022B11F0804F18BFEC
:1003A00000F8012B7047704770477047754600F0A2
:1003B0002BF8AE4605006946534620F007008546F7
:1003C00018B020B5FFF73EFFBDE820404FF0000613
:1003D0004FF000074FF000084FF0000BAC46ACE8C0
:1003E000C009ACE8C009ACE8C009ACE8C00921F01C
:1003F00007018D46704710B50446AFF300802046D4
:10040000BDE81040FFF709BF00487047100000200A
:1004100001491820ABBEFEE726000200704700002D
:10042000FEE700007047000080B54FF4006000F068
:1004300045F880BD72B600BFFEE70000B0B50446C7
:1004400000F02EF9054640F20500C2F200000078E7
:10045000611C18BF044400BF00F022F9401BA042F9
:10046000FAD3B0BD80B5B0F5006F26D140F60000DC
:10047000C4F202004FF4006100F0FEF858B1012808
:1004800018BF80BD00F00CF940F27001C2F200010B
:10049000086001200CE000F003F940F27001C2F2A4
:1004A00000010968411A0320B1F57A7F38BF0220A4
:1004B00040F25C11C2F20001087080BD80B543F6C5
:1004C0001441C4F201010A68024208BF80BD0860FD
:1004D000FFF7C8FF80BD00002DE9F04F82B000F1AA
:1004E0003E4241F6004502F1FF77C4F202050822C0
:1004F0004FEAB726A84208BF0722072E38BF4FEAA7
:10050000B7224FF0010A002400274FF000090092A3
:1005100009E000BF09F101090437B9F1100F04F136
:10052000020400F0A6800A680AFA09FC12EA0C0824
:10053000F0D0D1F804B00BF0030AAAF10102012AAD
:1005400012D882680323CE6803FA04FE22EA0E0260
:10055000A640324382604268CBF3001622EA0C02C6
:1005600006FA09F632434260BAF1030F1DD0C268A1
:1005700003238D6803FA04F6B24305FA04F6324306
:10058000BAF1020FC26010D16FF0030202EA590201
:100590000244D2F820C007F01C050F230E69AB40BF
:1005A0002CEA0303AE4033431362026803234E6810
:1005B000A3409A4306F00303A3401A4316F4403FB6
:1005C0004FF0010A0260A5D0002243F644030192D5
:1005D000C4F202031A6843F6004E42F480421A60E5
:1005E0001A68C4F2010E02F480420192019A29F0C5
:1005F00003024FF6084C7244CFF6FF7C52F80C30E1
:1006000007F00C060F25B540AB43009D05FA06F632
:10061000334342F80C30DEF808204B6842EA080603
:1006200043F60C4CDD0258BF22EA0806CEF80860FB
:10063000C4F2010CDCF800209D0242EA080658BF13
:1006400022EA0806CCF80060DEF804209D0342EAA6
:10065000080658BF22EA0806CEF80460DEF800203B
:10066000DB0342EA080658BF22EA0806CEF800601B
:1006700050E702B0BDE8F08F0069084018BF0120C4
:1006800070470000426902EA0103914341EA0341D5
:1006900081617047002A08BF09048161704700002A
:1006A00040F26010C2F200000068704740F205009E
:1006B00040F26011C2F20000C2F2000100780A6844
:1006C000104408607047000080B543F60040C4F253
:1006D0000200016841F400710160016841F4806129
:1006E0000160016841F480710160032000F0B2F8FC
:1006F0000F2000F005F800F055F8002080BD000044
:10070000B0B586B0002543F644010195C4F202015C
:100710000A68044642F001020A60096801A801F073
:10072000010101910199694600F054F900F072F954
:100730004DF683614000C4F21B31A0FB01014FF074
:10074000FF3000EB914140F278000022C2F200003D
:10075000C4F2010240F2E733C0E90021C0E90253CC
:100760000561856100F0A2FB0546C0B940F2780042
:10077000C2F2000000F0FEFB054680B9192000F02F
:100780002DF80F2C0AD819202146002200F036F847
:1007900040F20800C2F20000046000E00125284693
:1007A00006B0B0BD82B0002043F640010190C4F213
:1007B00002014A6842F480424A604A6802F4804278
:1007C0000192019A0090086840F080500860086823
:1007D00000F080500090009802B07047002848BF99
:1007E000704700F01F01012202FA01F14EF20012DF
:1007F0004009CEF2000242F82010704710B54EF6C4
:100800000C5CCEF2000CDCF80030C3F3022E8EF04C
:100810000704042C28BF0424BEF103034FF0FF3E5D
:100820000EFA04F438BF0023A14399400EFA03F3F3
:100830009A4300F00F03043B1143634409010C3356
:1008400000F16042B0F1FF3FC8BF02F56443197088
:1008500010BD00004EF60C51CEF200010A684FF6B2
:10086000FF031A4060F30A2242F0806040F0FD70FE
:10087000086070472DE9F041002800F08B8043F6B6
:100880000808C4F202080446D8F8F8030D4600F040
:100890000700884207D288F8F853D8F8F80300F028
:1008A0000700A84276D12068810717D5410705D5F2
:1008B000D8F8001041F4E051C8F80010010705D540
:1008C000D8F8001041F46041C8F80010D8F80010C2
:1008D000A26821F0F0011143C8F80010C0073FD111
:1008E000D8F8F80300F00700A84207D988F8F853B1
:1008F000D8F8F80300F00700A8424BD12068410760
:1009000007D5D8F80010E26821F4E0511143C8F887
:100910000010000708D5D8F80000216920F46040D5
:1009200040EAC100C8F8000000F088F8D8F80010CC
:1009300041F64262C1F30311C0F60002515C40F27D
:10094000000220FA01F140F20800C2F20000006843
:10095000C2F200021160FFF7D3FE0020BDE8F08173
:100960006068811E022907D258F8081C89015CBF03
:100970000120BDE8F08110E0012807D158F8081CDB
:1009800089035CBF0120BDE8F08106E058F8081C2F
:10099000890702D40120BDE8F081D8F8001021F0C9
:1009A00003010843C8F80000FFF77AFE064641F24B
:1009B000883700BFD8F80000616800F00C00B0EB89
:1009C000810F8DD0FFF76CFE801BB842F2D9032057
:1009D000BDE8F0810F22026043F60802C4F2020271
:1009E000136803F003034360136803F0F0038360AC
:1009F000136803F4E053C360D2F800C04FF4E0532F
:100A000003EADC030361D2F8F80300F00700086092
:100A10007047000040F2000043F60801C2F20000F7
:100A2000C4F202010068096841F65262C1F3423122
:100A3000C0F60002515CC8407047000010B543F694
:100A40000404C4F20204606800F00C0008280AD014
:100A5000042819BF42F20040C0F2F4004BF6802097
:100A6000C0F28C1010BD20682168236849024BF643
:100A70008021C0F28C1100F03F02C3F388105CBFEC
:100A800042F20041C0F2F401A1FB00010023FFF794
:100A9000EBFB21680222C1F3014102EB4101B0FBF3
:100AA000F1F010BD2DE9F04182B0002800F0A280E5
:100AB0000446007843F60006C007C4F2020643D09D
:100AC000B06800F00C00042805D1306880033BD5E5
:100AD0006068C8BB8EE0B06800F00C00082802D146
:100AE00070684002F1D46568B5F5A02F0AD0B5F55D
:100AF000803F0BD0306820F480303060306820F4C4
:100B0000802006E0306840F480203060306840F497
:100B100080303060FFF7C4FD002D054611D000BFC6
:100B20003068800310D4FFF7BBFD401B6428F7D961
:100B300022E100BFFFF7B4FD401B64284FF0030023
:100B400055D830688003F5D4207880071AD5B0686E
:100B500010F00C0F09D0B06800F00C00082840F02D
:100B60008A807068400200F186803068800702D574
:100B7000E06801283ED13068216920F0F80040EAA1
:100B8000C10030602078000738D4207840074CD46A
:100B9000A5695DB3B06800F00C00082840F09E80A5
:100BA000012D27D07068E16900F480028A4221D1CA
:100BB000216A00F03F028A421CD147F6C071626A86
:100BC0000140B1EB821F15D1A26A0023CFF6FF735B
:100BD00003EBC23200F440316FF30F02914209D1AE
:100BE000E16A00F07060B0EB016F03D1002002B049
:100BF000BDE8F081012002B0BDE8F0816069002805
:100C000040F20000C4F2472057D00121C0F8801EF6
:100C1000FFF746FD054600BF706F8007B5D4FFF7AC
:100C20003FFD401B0228F7D9A6E0306C10F0805839
:100C30000AD100200190306C40F080503064306C5C
:100C400000F080500190019847F20007C4F20007BD
:100C50003868C00524D4386840F480703860FFF7E5
:100C60001FFD05463868C0051AD4FFF719FD401B63
:100C70000228F7D980E0E068002851D00020C4F2B3
:100C8000472001210160FFF70BFD05463068800712
:100C90003FF571AFFFF704FD401B0228F6D96BE06A
:100CA000A568052D50D0012D52D0306F20F00100E5
:100CB0003067306F20F004004DE00021C0F8801E46
:100CC000FFF7EEFC054600BF706F80077FF55DAF54
:100CD000FFF7E6FC401B0228F6D94DE00027C4F2DE
:100CE000472700203866FFF7DBFC022D05460BD1B5
:100CF0003068800158D5FFF7D3FC401B02284FF025
:100D00000300F5D973E700BF306880017FF56EAF4F
:100D1000FFF7C6FC401B02284FF00300F4D966E73A
:100D20000020C4F2472000210160FFF7B9FC05460E
:100D3000306880077FF526AFFFF7B2FC401B022822
:100D40004FF00300F4D952E7306F40F004003067F1
:100D5000306F40F001003067FFF7A2FC002D054620
:100D600041F2883714D000BF306F800713D4FFF7EB
:100D700097FC401BB842F7D9032002B0BDE8F081D0
:100D8000FFF78EFC401BB8424FF003003FF62FAF39
:100D9000306F8007F4D4B8F1000F7FF4F9AE306CF7
:100DA00020F080503064F3E604F11C052FCD084399
:100DB0000021CFF6FF7140EA821001EBC3316FF3DF
:100DC0000F0140EA05600843706001203866FFF7B4
:100DD00067FC0446306880013FF508AFFFF760FC10
:100DE000001B02284FF00300F4D900E77047000011
:100DF0007047000010B590F83C20012A4FF0020225
:100E000052D0012380F83C3080F83D200268D2F8AF
:100E100004E0D2F808C00C682EF07003234341F2BE
:100E2000FF74C4F20004A24253600DDC40F2FF7371
:100E3000C4F200039A4215DCB2F1804F29D040F28F
:100E40000043C4F2000322E040F2FF33C4F2010386
:100E50009A4212DC41F60003C4F200039A4218D011
:100E6000002312E040F60003C4F200039A4210D0BF
:100E700040F60043C4F2000309E044F20003C4F268
:100E800001039A4205D040F20043C4F201039A42A2
:100E900004D149682CF0800319439160012100229C
:100EA00080F83D1080F83C20104610BD002804BF9B
:100EB0000120704710B5044690F83D0028B9002085
:100EC00084F83C00204600F01FF8022084F83D0022
:100ED0002068211D00F010FE012084F8460084F8EF
:100EE0003E0084F83F0084F8400084F8410084F814
:100EF000420084F8430084F8440084F8450084F8F4
:100F00003D00002010BD000080B582B0006840F2B6
:100F10000041C4F2000188421BD0B0F1804F27D1BC
:100F20000020019043F64000C4F202000168002254
:100F300041F0010101600068002100F00100019012
:100F400001981C20FFF75AFC1C20FFF747FC02B059
:100F500080BD0020009043F64000C4F2020001680A
:100F600041F002010160006800F00200009000986A
:100F700002B080BD90F83D1001291CBF01207047D0
:100F8000022180F83D10006841F2FF72C168C4F28E
:100F90000002904241F00101C1600DDC40F2FF719E
:100FA000C4F20001884215DCB0F1804F29D040F234
:100FB0000041C4F2000122E040F2FF31C4F201011D
:100FC000884212DC41F60001C4F20001884218D0C8
:100FD000002112E040F60001C4F20001884210D066
:100FE00040F60041C4F2000109E044F20001C4F2FD
:100FF0000101884205D040F20041C4F2010188425B
:1010000006D1816801F00701062904BF002070475E
:10101000016841F00101016000207047014600684D
:1010200041F21113C26822F00102C260026A1A4240
:1010300008D1026A40F244431A4203D1026822F006
:10104000010202600122002081F83D20704700006B
:1010500080B590F83C20012A4FF0020200F0C280D7
:10106000012380F83C3080F83D20D0F800C04FF6D6
:101070007772DCF8083023EA0202CCF808200B680B
:101080004F2B28DC1F2B43DD202B44D0302B42D0AC
:10109000402B40F0A980D1F804E0C968DCF820308A
:1010A000DCF8202022F00102CCF82020DCF8182007
:1010B00022F0F00242EA011123F00A0242EA0E0293
:1010C000CCF81810CCF82020DCF8081041F04701CB
:1010D00021F030017DE06F2B25DDB3F5005F46D0B8
:1010E000B3F5805F77D0702B7ED1D1E901E3C96879
:1010F000DCF8082043EA0E0322F47F4243EA012190
:101100001143CCF80810DCF8081041F0770160E0DA
:101110000BB1102B68D1DCF8081021F070011943D5
:1011200041F0070155E0502B34D0602B5CD1D1F851
:1011300004E0C968DCF82030DCF8202022F010023E
:10114000CCF82020DCF8182022F4704242EA013169
:1011500023F0A00242EA0E12CCF81810CCF820209E
:10116000DCF8081041F0670121F0100131E0D1E90D
:1011700001E3C968DCF8082043EA0E0322F47F4249
:1011800043EA01211143CCF80810DCF8081041F4BF
:1011900080411EE0D1F804E0C968DCF82030DCF8BA
:1011A000202022F00102CCF82020DCF8182022F0C8
:1011B000F00242EA011123F00A0242EA0E02CCF8E0
:1011C0001810CCF82020DCF8081041F0570121F06D
:1011D0002001CCF808100022012180F83D100021E8
:1011E00080F83C10104680BD0122F5E770470000F2
:1011F00070B504460068C5680669B10716D515F0D4
:10120000020113D06FF00201016101212177806991
:10121000800703D02046FFF7E9FF05E0204600F0F5
:101220008BF8204600F0F6F900202077700718D5DB
:1012300015F0040015D020686FF00401016102214F
:101240002177806910F4407F03D02046FFF7CEFF5E
:1012500005E0204600F070F8204600F0DBF90020A1
:101260002077300717D515F0080014D020686FF0EC
:101270000801016104212177C069800703D020465D
:10128000FFF7B4FF05E0204600F056F8204600F0D6
:10129000C1F900202077F00618D515F0100015D000
:1012A00020686FF01001016108212177C06910F4F6
:1012B000407F03D02046FFF799FF05E0204600F06D
:1012C0003BF8204600F0A6F900202077F00718BF71
:1012D00015F0010002D1300609D412E020686FF049
:1012E00001010161204600F02FFA300609D515F002
:1012F000800006D020686FF0800101612046FFF772
:1013000075FD700609D515F0400006D020686FF015
:1013100040010161204600F025FAB0060AD515F01B
:10132000200008BF70BD20686FF0200101612046D9
:10133000FFF75EFD70BD000070470000002804BF8D
:1013400001207047B0B5044690F83D000D4628B91D
:10135000002084F83C00204600F01EF8022084F8AB
:101360003D002068211D00F0C7FB2068016821F0C6
:1013700008010160016829430160012084F84600EA
:1013800084F83E0084F83F0084F8420084F843006B
:1013900084F83D000020B0BD704700002DE9F04109
:1013A00090F83C30012B04BF0220BDE8F0814FEAE9
:1013B000B2020123032A80F83C3000F2F480DFE817
:1013C00002F0023E7DBC036840F200471C6A1A6AC4
:1013D00024F0020422F001021A621A46D3F804E053
:1013E00052F818CF8E6843F48065C4F20107BD42FD
:1013F00044EA060405D1CE6824F00C0426F0040665
:1014000034430E68BD4207D1D1E905572EF4407E22
:1014100045EA0E0545EA070E2CF073073743C3F87B
:1014200004E09F614F6809695F631C629F6947F030
:1014300008079F619F6927F004079F61AFE0036879
:1014400040F200481C6A1A6A24F0200422F01002BC
:101450001A621A46D3F804E052F818CF8F6843F4A2
:101460008065C4F20108454544EA071407D1CF68F6
:101470006FF0400624F0C00406EA071634430F68F4
:10148000454507D1D1E905562EF4406E4EEA850553
:1014900045EA860E2CF4E64646EA0727C3F804E040
:1014A0009F614F6809699F631C629F6947F40067E9
:1014B0009F619F6927F480679F616FE0036840F236
:1014C00000481C6A1A6A24F4007422F480721A62BA
:1014D0001A46D3F804E052F81CCF8F6843F48065B5
:1014E000C4F20108454544EA072408D1CF6840F218
:1014F000FF463F0224F4406427EA060634430F689F
:10150000454507D1D1E905562EF4405E4EEA051552
:1015100045EA061E2CF073063743C3F804E0DF618A
:101520004F680969DF631C62DF6947F00807DF6104
:10153000DF6927F00407DF6131E0036840F200450E
:10154000D3F820C01A6A43F4806722F480521A62EA
:101550001A465C6852F81CEFD1F800808E68C4F21D
:101560000105AF4204D14D6924F4804444EA851456
:101570002CF4005747EA06372EF4E64646EA0826DA
:101580005C60DE614E6809691E641F62DF6947F4B2
:101590000067DF61DF6927F48067DF610902136894
:1015A000194300231160002180F83C101846BDE863
:1015B000F0810000002804BF0120704710B50446E8
:1015C00090F83D0028B9002084F83C00204600F047
:1015D0001FF8022084F83D002068211D00F08CFADD
:1015E000012084F8460084F83E0084F83F0084F827
:1015F000400084F8410084F8420084F8430084F8F5
:10160000440084F8450084F83D00002010BD00002F
:10161000704700007047000041B1082909D0042933
:1016200014BF00F1410200F13F0204E000F13E026C
:1016300001E000F140021278012A1CBF012070472E
:10164000022241B1082909D0042914BF80F84120A1
:1016500080F83F2004E080F83E2001E080F8402040
:10166000006801F01F010122036A02FA01F123EA76
:1016700001020262026A0A4341F2FF71C4F20001F0
:10168000884202620FDC40F2FF71C4F2000188421E
:1016900017DCB0F1804F49D040F20041C4F20001A4
:1016A000884243D049E040F2FF32C4F20102904246
:1016B00014DC41F60003C4F20003984236D0002344
:1016C00014E040F60001C4F2000188422ED040F63A
:1016D0000041C4F20001884228D02EE044F2000309
:1016E000C4F20103984221D040F20043C4F2010346
:1016F000984222D1436C884243F400434364C2DDE4
:10170000904207DC41F60001C4F2000188420DD08E
:10171000002107E044F20001C4F20101884205D033
:1017200040F20041C4F20101884206D1816801F013
:101730000701062904BF00207047016841F001013C
:10174000016000207047000010B5044600680021C9
:10175000C4F20101884208BFFEF7A8FF204600F04E
:1017600061FA10BD70470000FEE700002DE9F0416E
:1017700086B0002643F630000596CDE90366CDE934
:1017800001660096C4F202000168002441F0800165
:1017900001600168C4F2020401F080010091009927
:1017A00000960168002241F001010160016801F02A
:1017B0000101009100990096016841F00401016067
:1017C00000684FF4987100F00400009000982046E3
:1017D000FEF760FF102001AD019001274FF00208D5
:1017E000204629460297CDE90386FEF775FE4FF4A1
:1017F0009070CDE9010720462946CDE90366FEF742
:101800006BFE4FF4006001904FF44410CDE90208E4
:1018100004F500602946FEF75FFE2820052100221E
:10182000FEF7ECFF2820FEF7D9FF06B0BDE8F081F7
:1018300080B586B040F2C00044F23F2C0021C2F2D5
:1018400000004FF080425323C0F20F0CCDE9041189
:10185000CDE90211CDE90011C0E90023C0E9021C65
:1018600001618161FFF722FB002818BFFEF7E2FD4E
:101870004FF48050029040F2C000C2F2000002A972
:10188000FFF7E6FB002818BFFEF7D4FD40F2C000CA
:10189000C2F200000821FFF751FD002818BFFEF733
:1018A000C9FD0020CDE9000040F2C000C2F20000F6
:1018B0006946FFF79FFA002818BFFEF7BBFD06B088
:1018C00080BD0000B0B594B040F2004540F2081071
:1018D000C4F200050021C2F20000532240F2E733B7
:1018E0000D91CDE90B11CDE90911CDE90711CDE934
:1018F0000511CDE90311CDE90111C0E90052C0E99C
:10190000021301618161FFF7D1FA002818BFFEF7C9
:1019100091FD4FF480500A9040F20810C2F200008E
:101920000AA9FFF795FB002818BFFEF783FD40F2D8
:101930000810C2F20000FFF73DFE002818BFFEF7B6
:1019400079FD40F208100024C2F2000008A9CDE998
:101950000844FFF74FFA002818BFFEF76BFD602020
:10196000CDE9010440F20810C2F2000001A90022F2
:1019700003940594FFF712FD002818BFFEF75AFDE7
:1019800040F20814C2F2000401A920460422FFF725
:1019900005FD002818BFFEF74DFD21680020A94273
:1019A0001390CDE9110010900F9001D014B0B0BD8C
:1019B00043F630010E90C4F202010A6842F00102BF
:1019C0000A60096801F001010E910E99C0210F9182
:1019D0000221CDE91010CDE9120105F5FE300FA965
:1019E000FEF77AFD14B0B0BDFEE70000FEE7000090
:1019F00070470000704700007047000070B592B05B
:101A000006AC20463021FEF7A7FC002543F6400037
:101A10000595CDE90355CDE901550095C4F20200C5
:101A20000168022641F080510160006800F080509A
:101A30000090009847F200000095C4F20000016891
:101A400041F480410160006800F4804000900098FB
:101A5000012006904FF4803007904FF480000D90E5
:101A60000D200E90A820CDE90F06042011902046ED
:101A70000C96FFF717F810B172B600BFFEE70F2003
:101A8000CDE901064FF4A05004904FF4805005902A
:101A900001A805210395FEF7EDFE10B172B600BF57
:101AA000FEE712B070BD00004EF68850CEF2000086
:101AB000016841F4700101607047000080B540F298
:101AC0007800C2F20000FFF793FB80BD80B540F2C2
:101AD000C000C2F20000FFF78BFB80BD80B540F272
:101AE000C000C2F20000016800224A626FF00102E9
:101AF0000A61FFF73FFA80BDB0B540F6FF3E0568CA
:101B0000C4F2000E40F2004C7045C4F2010C0FDC30
:101B1000B0F1804F19D040F20043C4F20003984264
:101B200013D040F60003C4F2000398420DD011E038
:101B300040F60043C4F20003984206D0604504D04A
:101B40000023C4F20103984204D14B6825F07002CF
:101B500043EA020541F6FF73C4F2000398420DDC2C
:101B600070451FDCB0F1804F41D040F20043C4F219
:101B7000000398423BD040F6000321E043F6FF7398
:101B8000C4F20103984220DC42F20003C4F20003D5
:101B900098422CD00023C4F20103984227D060451C
:101BA00025D029E040F60043C4F2000398421ED03D
:101BB00041F60003C4F20003984218D041F60043F6
:101BC000C4F20003984212D016E044F20003C4F2BB
:101BD000010398420BD044F60003C4F2010398427B
:101BE00005D044F20043C4F20103984204D1CB680B
:101BF00025F4407243EA02050A688C684B69C462A6
:101C000040F480648262644504BF0969016302682C
:101C100025F0800142F00402194302600122426172
:101C20000160B0BD80B50168B1F1804F18BF80BDC3
:101C3000FFF7F4F940F20400C2F200000121017044
:101C400080BD0000FEE7000080B50020C4F2020065
:101C50004FF480710022FEF71DFD80BD80B500208D
:101C6000C4F202004FF48071FEF70CFD80BD00004D
:101C70000138C1B2032988BF704780B541F65A6167
:101C800040B2C0F6000131F810100020C4F202008A
:101C90000022FEF7FFFCBDE88040704780B501469A
:101CA0000020C4F20200FEF7EDFC80BDFEF70CFD43
:101CB000FFF7A4FEFFF75AFDFFF7BAFDFFF702FE9C
:101CC00040F20814C2F2000420460021FFF7A4FCF1
:101CD00020460421FFF7A0FC40F25C14C2F200048D
:101CE000207800F001F8FBE770B5032800D970BD3B
:101CF000FDD8DFE800F0020E2C55FFF7A5FF012507
:101D0000ECB22046FFF7B4FF042C05F10105F7D330
:101D1000EDE740F25010C2F20000007A28B940F21C
:101D20005010C2F2000000F077F840F25010C2F2FA
:101D30000000C82100F05CF8002851D0FFF78EFFAA
:101D400040F25010C2F2000000F066F848E040F2A5
:101D50007404C2F20004207818B9FFF7BFFE012016
:101D6000207040F20405C2F200052878002808BF60
:101D700070BDFFF769FF40F27501C2F200010878FB
:101D800041F66263421C00F00300C0F6000333F822
:101D900010000A70FFF782FF00202870207070BDCD
:101DA000FFF752FF40F208140125C2F2000440F28E
:101DB000E93600BF2068456385630120FEF73EFBDE
:101DC0000135B542F6D140F2E93500BF2068A91EC1
:101DD000416381630120FEF731FB013D012DF5D800
:101DE0000120FFF745FF0320FFF742FF70BD000011
:101DF00010B50446007A616001281CBF002010BDA8
:101E0000FEF74EFCD4E90012401A90424FF0000059
:101E100024BF2072012010BD10B50446FEF740FC1F
:101E200020600120207210BDF1EE100A4FF6FF7104
:101E3000C0F2C03120EA010040F04070E1EE100A2B
:101E400070470000000000000000010203040607C4
:101E500008090000000001020304200080001000B7
:101E6000400010001000200020000000901E00081C
:101E70000000002010000000C4010008A01E00089F
:101E80001000002058070000E001000800000000DA
:101E90000024F40001010000100000000000000018
:040000050800018965
:00000001FF
